{
  "transactions": [
    {
      "hash": "0x3fdf4233022739cbd09d640119b5affcb1f901ceabbea7300138fb2128d2d9b7",
      "transactionType": "CALL",
      "contractName": null,
      "contractAddress": "0x4f9a9b4f96dd04b0286b6bd58c3b526a03cd6d0a",
      "function": "mint(string)",
      "arguments": [
        "ipfs://7FF7A784A39D"
      ],
      "transaction": {
        "from": "0x1ae1e9de0b091450391c751813d670162acc04b0",
        "to": "0x4f9a9b4f96dd04b0286b6bd58c3b526a03cd6d0a",
        "gas": "0x1bafd",
        "value": "0x0",
        "input": "0xd85d3d2700000000000000000000000000000000000000000000000000000000000000200000000000000000000000000000000000000000000000000000000000000013697066733a2f2f37464637413738344133394400000000000000000000000000",
        "nonce": "0xf8",
        "chainId": "0xaa36a7"
      },
      "additionalContracts": [],
      "isFixedGasLimit": false
    }
  ],
  "receipts": [
    {
      "status": "0x1",
      "cumulativeGasUsed": "0x26a31c3",
      "logs": [
        {
          "address": "0x4f9a9b4f96dd04b0286b6bd58c3b526a03cd6d0a",
          "topics": [
            "0xddf252ad1be2c89b69c2b068fc378daa952ba7f163c4a11628f55a4df523b3ef",
            "0x0000000000000000000000000000000000000000000000000000000000000000",
            "0x0000000000000000000000001ae1e9de0b091450391c751813d670162acc04b0",
            "0x0000000000000000000000000000000000000000000000000000000000000001"
          ],
          "data": "0x",
          "blockHash": "0x5c21f43a4c5ef16ed41b2874bfcdb9f36e643821ea6136b39b111f558eb5e4c7",
          "blockNumber": "0x8eb8bd",
          "blockTimestamp": "0x68e36200",
          "transactionHash": "0x3fdf4233022739cbd09d640119b5affcb1f901ceabbea7300138fb2128d2d9b7",
          "transactionIndex": "0x73",
          "logIndex": "0x8f",
          "removed": false
        },
        {
          "address": "0x4f9a9b4f96dd04b0286b6bd58c3b526a03cd6d0a",
          "topics": [
            "0xf8e1a15aba9398e019f0b49df1a4fde98ee17ae345cb5f6b5e2c27f5033e8ce7"
          ],
          "data": "0x0000000000000000000000000000000000000000000000000000000000000001",
          "blockHash": "0x5c21f43a4c5ef16ed41b2874bfcdb9f36e643821ea6136b39b111f558eb5e4c7",
          "blockNumber": "0x8eb8bd",
          "blockTimestamp": "0x68e36200",
          "transactionHash": "0x3fdf4233022739cbd09d640119b5affcb1f901ceabbea7300138fb2128d2d9b7",
          "transactionIndex": "0x73",
          "logIndex": "0x90",
          "removed": false
        }
      ],
      "logsBloom": "0x00000000000000000000000000000000000000000000020000000000000000000000000000000000000000000000000000000000000004000000000000040000000000000000000000000008020000000000000000040000000000000000000000000000020000000000000000000800000000000000000000000030000000000000000000000000000000000000000000000000000000000000000000000000000000000000000000000000000000002000000000000000000080000000008000000002000000000000000000000000000000000000000000000000000060000000000000000200200000000000000000000000000000000000000000000000",
      "type": "0x2",
      "transactionHash": "0x3fdf4233022739cbd09d640119b5affcb1f901ceabbea7300138fb2128d2d9b7",
      "transactionIndex": "0x73",
      "blockHash": "0x5c21f43a4c5ef16ed41b2874bfcdb9f36e643821ea6136b39b111f558eb5e4c7",
      "blockNumber": "0x8eb8bd",
      "gasUsed": "0x140b8",
      "effectiveGasPrice": "0xf425c",
      "from": "0x1ae1e9de0b091450391c751813d670162acc04b0",
      "to": "0x4f9a9b4f96dd04b0286b6bd58c3b526a03cd6d0a",
      "contractAddress": null
    }
  ],
  "libraries": [],
  "pending": [],
  "returns": {},
  "timestamp": 1759732225663,
  "chain": 11155111,
  "commit": null
}