{
  "transactions": [
    {
      "hash": "0x967cf93f19b4fb63a890cdde5cbc6940c9d0b8b977a6a033be0aa9d00593a6c6",
      "transactionType": "CALL",
      "contractName": null,
      "contractAddress": "0x4f9a9b4f96dd04b0286b6bd58c3b526a03cd6d0a",
      "function": "mint(string)",
      "arguments": [
        "ipfs://Qmf6P7DBfszYetiz1popxkiYJw46njsRJmJpcTN2ENH8wX"
      ],
      "transaction": {
        "from": "0x1ae1e9de0b091450391c751813d670162acc04b0",
        "to": "0x4f9a9b4f96dd04b0286b6bd58c3b526a03cd6d0a",
        "gas": "0x2ad66",
        "value": "0x0",
        "input": "0xd85d3d2700000000000000000000000000000000000000000000000000000000000000200000000000000000000000000000000000000000000000000000000000000035697066733a2f2f516d66365037444266737a596574697a31706f70786b69594a7734366e6a73524a6d4a7063544e32454e483877580000000000000000000000",
        "nonce": "0xf9",
        "chainId": "0xaa36a7"
      },
      "additionalContracts": [],
      "isFixedGasLimit": false
    }
  ],
  "receipts": [
    {
      "status": "0x1",
      "cumulativeGasUsed": "0x12d4f4b",
      "logs": [
        {
          "address": "0x4f9a9b4f96dd04b0286b6bd58c3b526a03cd6d0a",
          "topics": [
            "0xddf252ad1be2c89b69c2b068fc378daa952ba7f163c4a11628f55a4df523b3ef",
            "0x0000000000000000000000000000000000000000000000000000000000000000",
            "0x0000000000000000000000001ae1e9de0b091450391c751813d670162acc04b0",
            "0x0000000000000000000000000000000000000000000000000000000000000002"
          ],
          "data": "0x",
          "blockHash": "0xaa5ad89957d5b5a27693c3f1f6127aa94b9648792b4e6d2b760d6818f381712d",
          "blockNumber": "0x8eb8c3",
          "blockTimestamp": "0x68e36248",
          "transactionHash": "0x967cf93f19b4fb63a890cdde5cbc6940c9d0b8b977a6a033be0aa9d00593a6c6",
          "transactionIndex": "0x89",
          "logIndex": "0xb7",
          "removed": false
        },
        {
          "address": "0x4f9a9b4f96dd04b0286b6bd58c3b526a03cd6d0a",
          "topics": [
            "0xf8e1a15aba9398e019f0b49df1a4fde98ee17ae345cb5f6b5e2c27f5033e8ce7"
          ],
          "data": "0x0000000000000000000000000000000000000000000000000000000000000002",
          "blockHash": "0xaa5ad89957d5b5a27693c3f1f6127aa94b9648792b4e6d2b760d6818f381712d",
          "blockNumber": "0x8eb8c3",
          "blockTimestamp": "0x68e36248",
          "transactionHash": "0x967cf93f19b4fb63a890cdde5cbc6940c9d0b8b977a6a033be0aa9d00593a6c6",
          "transactionIndex": "0x89",
          "logIndex": "0xb8",
          "removed": false
        }
      ],
      "logsBloom": "0x04000000000000000000000000000000000000000000020000000000000000000000000000000000000000000000000000000000000004000000000000000000000000000000000000000008020000000000000000000000000000000000000000000000020000000000000000000800000000000000000000000030000000000000000000000000000000000000000000000000000000000000000000000000000000000000000000000100000000002000000000000000000080000000008000000002000000000000000000000000000000000000000000000000000020000000000000000200200000000000000000000000008000000000000000000000",
      "type": "0x2",
      "transactionHash": "0x967cf93f19b4fb63a890cdde5cbc6940c9d0b8b977a6a033be0aa9d00593a6c6",
      "transactionIndex": "0x89",
      "blockHash": "0xaa5ad89957d5b5a27693c3f1f6127aa94b9648792b4e6d2b760d6818f381712d",
      "blockNumber": "0x8eb8c3",
      "gasUsed": "0x1f038",
      "effectiveGasPrice": "0xf4259",
      "from": "0x1ae1e9de0b091450391c751813d670162acc04b0",
      "to": "0x4f9a9b4f96dd04b0286b6bd58c3b526a03cd6d0a",
      "contractAddress": null
    }
  ],
  "libraries": [],
  "pending": [],
  "returns": {},
  "timestamp": 1759732296400,
  "chain": 11155111,
  "commit": null
}