{
  "transactions": [
    {
      "hash": "0x7b837688133557225410819eae0d4267446dce3c7b26f7c58891706b12a8120f",
      "transactionType": "CALL",
      "contractName": null,
      "contractAddress": "0x4f9a9b4f96dd04b0286b6bd58c3b526a03cd6d0a",
      "function": "mint(string)",
      "arguments": [
        "ipfs://Qmf6P7DBfszYetiz1popxkiYJw46njsRJmJpcTN2ENH8wX"
      ],
      "transaction": {
        "from": "0x1ae1e9de0b091450391c751813d670162acc04b0",
        "to": "0x4f9a9b4f96dd04b0286b6bd58c3b526a03cd6d0a",
        "gas": "0x2ad66",
        "value": "0x0",
        "input": "0xd85d3d2700000000000000000000000000000000000000000000000000000000000000200000000000000000000000000000000000000000000000000000000000000035697066733a2f2f516d66365037444266737a596574697a31706f70786b69594a7734366e6a73524a6d4a7063544e32454e483877580000000000000000000000",
        "nonce": "0xfb",
        "chainId": "0xaa36a7"
      },
      "additionalContracts": [],
      "isFixedGasLimit": false
    }
  ],
  "receipts": [
    {
      "status": "0x1",
      "cumulativeGasUsed": "0x9d3fd4",
      "logs": [
        {
          "address": "0x4f9a9b4f96dd04b0286b6bd58c3b526a03cd6d0a",
          "topics": [
            "0xddf252ad1be2c89b69c2b068fc378daa952ba7f163c4a11628f55a4df523b3ef",
            "0x0000000000000000000000000000000000000000000000000000000000000000",
            "0x0000000000000000000000001ae1e9de0b091450391c751813d670162acc04b0",
            "0x0000000000000000000000000000000000000000000000000000000000000004"
          ],
          "data": "0x",
          "blockHash": "0xaa88496020cc04d13ac027c5e922175f4c2bbaa82252f5a68c4f8d6d7723d2c7",
          "blockNumber": "0x8eb8ec",
          "blockTimestamp": "0x68e36464",
          "transactionHash": "0x7b837688133557225410819eae0d4267446dce3c7b26f7c58891706b12a8120f",
          "transactionIndex": "0x4f",
          "logIndex": "0x6e",
          "removed": false
        },
        {
          "address": "0x4f9a9b4f96dd04b0286b6bd58c3b526a03cd6d0a",
          "topics": [
            "0xf8e1a15aba9398e019f0b49df1a4fde98ee17ae345cb5f6b5e2c27f5033e8ce7"
          ],
          "data": "0x0000000000000000000000000000000000000000000000000000000000000004",
          "blockHash": "0xaa88496020cc04d13ac027c5e922175f4c2bbaa82252f5a68c4f8d6d7723d2c7",
          "blockNumber": "0x8eb8ec",
          "blockTimestamp": "0x68e36464",
          "transactionHash": "0x7b837688133557225410819eae0d4267446dce3c7b26f7c58891706b12a8120f",
          "transactionIndex": "0x4f",
          "logIndex": "0x6f",
          "removed": false
        }
      ],
      "logsBloom": "0x00000000000000000000000000000000000000000000020000000000000000000000000000000000000000000000000000000000000004000000000000000000000000000000000000000008020000000000000000000000000000000000000008000000020000000000000000000800000000000000000000000030000000000000000000000000000000000000000000000000000000000000000000000000000000000000000000000000000000002000000000000000002080000000008000000002000000000000000000000000000000008000000000000000000020000000000000000200200000000000000000000000000000000000000000000000",
      "type": "0x2",
      "transactionHash": "0x7b837688133557225410819eae0d4267446dce3c7b26f7c58891706b12a8120f",
      "transactionIndex": "0x4f",
      "blockHash": "0xaa88496020cc04d13ac027c5e922175f4c2bbaa82252f5a68c4f8d6d7723d2c7",
      "blockNumber": "0x8eb8ec",
      "gasUsed": "0x1f038",
      "effectiveGasPrice": "0xf425a",
      "from": "0x1ae1e9de0b091450391c751813d670162acc04b0",
      "to": "0x4f9a9b4f96dd04b0286b6bd58c3b526a03cd6d0a",
      "contractAddress": null
    }
  ],
  "libraries": [],
  "pending": [],
  "returns": {},
  "timestamp": 1759732836900,
  "chain": 11155111,
  "commit": null
}