{
  "transactions": [
    {
      "hash": null,
      "transactionType": "CALL",
      "contractName": null,
      "contractAddress": "0x4f9a9b4f96dd04b0286b6bd58c3b526a03cd6d0a",
      "function": "mint(string)",
      "arguments": [
        "ipfs://00007FF7A784A39D"
      ],
      "transaction": {
        "from": "0x1ae1e9de0b091450391c751813d670162acc04b0",
        "to": "0x4f9a9b4f96dd04b0286b6bd58c3b526a03cd6d0a",
        "gas": "0x273c7",
        "value": "0x0",
        "input": "0xd85d3d2700000000000000000000000000000000000000000000000000000000000000200000000000000000000000000000000000000000000000000000000000000017697066733a2f2f30303030374646374137383441333944000000000000000000",
        "nonce": "0xf6",
        "chainId": "0xaa36a7"
      },
      "additionalContracts": [],
      "isFixedGasLimit": false
    }
  ],
  "receipts": [],
  "libraries": [],
  "pending": [],
  "returns": {},
  "timestamp": 1759728162622,
  "chain": 11155111,
  "commit": null
}