{
  "transactions": [
    {
      "hash": "0xf42ddc216a2b581fdc44014308513dd1f46f8b15825f6b27adc582d1664ff6f9",
      "transactionType": "CALL",
      "contractName": null,
      "contractAddress": "0xbc4204dc5f630e019562b19965aa15456a995d4a",
      "function": "mint(string)",
      "arguments": [
        "ipfs://bafkreifu4adgaucpcqis643x22oxpzvfbbpr6xpxhs756pjsj6rwsuymp4"
      ],
      "transaction": {
        "from": "0x1ae1e9de0b091450391c751813d670162acc04b0",
        "to": "0xbc4204dc5f630e019562b19965aa15456a995d4a",
        "gas": "0x326b6",
        "value": "0x0",
        "input": "0xd85d3d2700000000000000000000000000000000000000000000000000000000000000200000000000000000000000000000000000000000000000000000000000000042697066733a2f2f6261666b72656966753461646761756370637169733634337832326f78707a766662627072367870786873373536706a736a3672777375796d7034000000000000000000000000000000000000000000000000000000000000",
        "nonce": "0x108",
        "chainId": "0xaa36a7"
      },
      "additionalContracts": [],
      "isFixedGasLimit": false
    }
  ],
  "receipts": [
    {
      "status": "0x1",
      "cumulativeGasUsed": "0x6f93ea",
      "logs": [
        {
          "address": "0xbc4204dc5f630e019562b19965aa15456a995d4a",
          "topics": [
            "0xddf252ad1be2c89b69c2b068fc378daa952ba7f163c4a11628f55a4df523b3ef",
            "0x0000000000000000000000000000000000000000000000000000000000000000",
            "0x0000000000000000000000001ae1e9de0b091450391c751813d670162acc04b0",
            "0x000000000000000000000000000000000000000000000000000000000000000a"
          ],
          "data": "0x",
          "blockHash": "0xbfbc3283cacfc5f1c06ffda5240d44e0c9f60a70a593d29f0bebecec58e82a13",
          "blockNumber": "0x8ebb15",
          "blockTimestamp": "0x68e38048",
          "transactionHash": "0xf42ddc216a2b581fdc44014308513dd1f46f8b15825f6b27adc582d1664ff6f9",
          "transactionIndex": "0x55",
          "logIndex": "0x79",
          "removed": false
        },
        {
          "address": "0xbc4204dc5f630e019562b19965aa15456a995d4a",
          "topics": [
            "0xf8e1a15aba9398e019f0b49df1a4fde98ee17ae345cb5f6b5e2c27f5033e8ce7"
          ],
          "data": "0x000000000000000000000000000000000000000000000000000000000000000a",
          "blockHash": "0xbfbc3283cacfc5f1c06ffda5240d44e0c9f60a70a593d29f0bebecec58e82a13",
          "blockNumber": "0x8ebb15",
          "blockTimestamp": "0x68e38048",
          "transactionHash": "0xf42ddc216a2b581fdc44014308513dd1f46f8b15825f6b27adc582d1664ff6f9",
          "transactionIndex": "0x55",
          "logIndex": "0x7a",
          "removed": false
        }
      ],
      "logsBloom": "0x00000000000000000040000000000000000000000000020000000000000000000000000000000000000000000000000000000000040004000020000000000000000000000000000000000008000000000000000000000000000000000000000000000000020000000000000000000800100000000000000000000010000000000000000000000000010000000000000000000000000000000000000000000000000000000000000000000000000000002000000000000000000080000000008000000002002000000000000000000000000000000000000000000000000020000000000000000000200000000000000000000000000000000000000000000000",
      "type": "0x2",
      "transactionHash": "0xf42ddc216a2b581fdc44014308513dd1f46f8b15825f6b27adc582d1664ff6f9",
      "transactionIndex": "0x55",
      "blockHash": "0xbfbc3283cacfc5f1c06ffda5240d44e0c9f60a70a593d29f0bebecec58e82a13",
      "blockNumber": "0x8ebb15",
      "gasUsed": "0x2480c",
      "effectiveGasPrice": "0xf4286",
      "from": "0x1ae1e9de0b091450391c751813d670162acc04b0",
      "to": "0xbc4204dc5f630e019562b19965aa15456a995d4a",
      "contractAddress": null
    }
  ],
  "libraries": [],
  "pending": [],
  "returns": {},
  "timestamp": 1759739975908,
  "chain": 11155111,
  "commit": null
}