{
  "transactions": [
    {
      "hash": "0x47a3fc69a1293100347127d917b109dedd91f51ee887f2ecb0610d0dc7b312a1",
      "transactionType": "CALL",
      "contractName": null,
      "contractAddress": "0xbc4204dc5f630e019562b19965aa15456a995d4a",
      "function": "mint(string)",
      "arguments": [
        "ipfs://Qmf6P7DBfszYetiz1popxkiYJw46njsRJmJpcTN2ENH8wX"
      ],
      "transaction": {
        "from": "0x1ae1e9de0b091450391c751813d670162acc04b0",
        "to": "0xbc4204dc5f630e019562b19965aa15456a995d4a",
        "gas": "0x365ed",
        "value": "0x0",
        "input": "0xd85d3d2700000000000000000000000000000000000000000000000000000000000000200000000000000000000000000000000000000000000000000000000000000035697066733a2f2f516d66365037444266737a596574697a31706f70786b69594a7734366e6a73524a6d4a7063544e32454e483877580000000000000000000000",
        "nonce": "0xfe",
        "chainId": "0xaa36a7"
      },
      "additionalContracts": [],
      "isFixedGasLimit": false
    },
    {
      "hash": "0xcacac0639c1c4ecc8f0102293a0f830d32e0915fa69167a6fdb44dd560c3895d",
      "transactionType": "CALL",
      "contractName": null,
      "contractAddress": "0xbc4204dc5f630e019562b19965aa15456a995d4a",
      "function": "mint(string)",
      "arguments": [
        "ipfs://QmTv48WLA4CwUDDRFLgEZD82WcJzv7Hw2pS78NFeE8mEnn"
      ],
      "transaction": {
        "from": "0x1ae1e9de0b091450391c751813d670162acc04b0",
        "to": "0xbc4204dc5f630e019562b19965aa15456a995d4a",
        "gas": "0x2ad66",
        "value": "0x0",
        "input": "0xd85d3d2700000000000000000000000000000000000000000000000000000000000000200000000000000000000000000000000000000000000000000000000000000035697066733a2f2f516d54763438574c4134437755444452464c67455a44383257634a7a7637487732705337384e466545386d456e6e0000000000000000000000",
        "nonce": "0xff",
        "chainId": "0xaa36a7"
      },
      "additionalContracts": [],
      "isFixedGasLimit": false
    },
    {
      "hash": "0x672741a028be5f204a12d3b60d0fbeabd4485486a74abe6bbf8e22550a611412",
      "transactionType": "CALL",
      "contractName": null,
      "contractAddress": "0xbc4204dc5f630e019562b19965aa15456a995d4a",
      "function": "mint(string)",
      "arguments": [
        "ipfs://QmSe2dF66LLHuKh82YUiqZB9m1qmSvX3Z5io2LnYV8WJ8j"
      ],
      "transaction": {
        "from": "0x1ae1e9de0b091450391c751813d670162acc04b0",
        "to": "0xbc4204dc5f630e019562b19965aa15456a995d4a",
        "gas": "0x2ad66",
        "value": "0x0",
        "input": "0xd85d3d2700000000000000000000000000000000000000000000000000000000000000200000000000000000000000000000000000000000000000000000000000000035697066733a2f2f516d536532644636364c4c48754b683832595569715a42396d31716d537658335a35696f324c6e595638574a386a0000000000000000000000",
        "nonce": "0x100",
        "chainId": "0xaa36a7"
      },
      "additionalContracts": [],
      "isFixedGasLimit": false
    },
    {
      "hash": "0xa48230ac847a222b25b80c371dc07d0e040998bd33a26559dbcf1883ba1d22ef",
      "transactionType": "CALL",
      "contractName": null,
      "contractAddress": "0xbc4204dc5f630e019562b19965aa15456a995d4a",
      "function": "mint(string)",
      "arguments": [
        "ipfs://Qmc3de1JGG16dhidzNWNTfX1wqoLakDC6tnxqT3K928MN9"
      ],
      "transaction": {
        "from": "0x1ae1e9de0b091450391c751813d670162acc04b0",
        "to": "0xbc4204dc5f630e019562b19965aa15456a995d4a",
        "gas": "0x2ad66",
        "value": "0x0",
        "input": "0xd85d3d2700000000000000000000000000000000000000000000000000000000000000200000000000000000000000000000000000000000000000000000000000000035697066733a2f2f516d63336465314a47473136646869647a4e574e5466583177716f4c616b444336746e787154334b3932384d4e390000000000000000000000",
        "nonce": "0x101",
        "chainId": "0xaa36a7"
      },
      "additionalContracts": [],
      "isFixedGasLimit": false
    },
    {
      "hash": "0xe3b73ecf540f6a2df90a7b35381f4a07a9d91ebe28f5bfc7a0ee0e0efd014b44",
      "transactionType": "CALL",
      "contractName": null,
      "contractAddress": "0xbc4204dc5f630e019562b19965aa15456a995d4a",
      "function": "mint(string)",
      "arguments": [
        "ipfs://QmPtKSucHLjmMUTh37BFzNE2nSNCER3LDRCLftGZwphGPk"
      ],
      "transaction": {
        "from": "0x1ae1e9de0b091450391c751813d670162acc04b0",
        "to": "0xbc4204dc5f630e019562b19965aa15456a995d4a",
        "gas": "0x2ad66",
        "value": "0x0",
        "input": "0xd85d3d2700000000000000000000000000000000000000000000000000000000000000200000000000000000000000000000000000000000000000000000000000000035697066733a2f2f516d50744b537563484c6a6d4d555468333742467a4e45326e534e434552334c4452434c6674475a77706847506b0000000000000000000000",
        "nonce": "0x102",
        "chainId": "0xaa36a7"
      },
      "additionalContracts": [],
      "isFixedGasLimit": false
    },
    {
      "hash": "0xfe547515e4e5a0032dc692cdf450d9411574fc384e7362d749a3c0607ce47379",
      "transactionType": "CALL",
      "contractName": null,
      "contractAddress": "0xbc4204dc5f630e019562b19965aa15456a995d4a",
      "function": "mint(string)",
      "arguments": [
        "ipfs://Qmd4kz6hS13AyCmXSwgjVz41s1sG9xZoebd7T2qLkTGw9S"
      ],
      "transaction": {
        "from": "0x1ae1e9de0b091450391c751813d670162acc04b0",
        "to": "0xbc4204dc5f630e019562b19965aa15456a995d4a",
        "gas": "0x2ad66",
        "value": "0x0",
        "input": "0xd85d3d2700000000000000000000000000000000000000000000000000000000000000200000000000000000000000000000000000000000000000000000000000000035697066733a2f2f516d64346b7a36685331334179436d585377676a567a34317331734739785a6f656264375432714c6b54477739530000000000000000000000",
        "nonce": "0x103",
        "chainId": "0xaa36a7"
      },
      "additionalContracts": [],
      "isFixedGasLimit": false
    },
    {
      "hash": "0x304cc4807574d3b5a3c095fd32404e7f6b1aedc0fe4f253bea239c2a8df7d41d",
      "transactionType": "CALL",
      "contractName": null,
      "contractAddress": "0xbc4204dc5f630e019562b19965aa15456a995d4a",
      "function": "mint(string)",
      "arguments": [
        "ipfs://QmTPCZheEkLLfnLepsu2ihzaRQwFkMHeKFrJZDSB1BKJQU"
      ],
      "transaction": {
        "from": "0x1ae1e9de0b091450391c751813d670162acc04b0",
        "to": "0xbc4204dc5f630e019562b19965aa15456a995d4a",
        "gas": "0x2ad66",
        "value": "0x0",
        "input": "0xd85d3d2700000000000000000000000000000000000000000000000000000000000000200000000000000000000000000000000000000000000000000000000000000035697066733a2f2f516d5450435a6865456b4c4c666e4c657073753269687a61525177466b4d48654b46724a5a44534231424b4a51550000000000000000000000",
        "nonce": "0x104",
        "chainId": "0xaa36a7"
      },
      "additionalContracts": [],
      "isFixedGasLimit": false
    },
    {
      "hash": "0x9b718c3f2e05763823161f6513ca5988c9df4692e581c4147b93005cfd40660a",
      "transactionType": "CALL",
      "contractName": null,
      "contractAddress": "0xbc4204dc5f630e019562b19965aa15456a995d4a",
      "function": "mint(string)",
      "arguments": [
        "ipfs://QmZKU3tr9pVyppt4nih495T4bLc5Wpwapg1VHmNAuKodte"
      ],
      "transaction": {
        "from": "0x1ae1e9de0b091450391c751813d670162acc04b0",
        "to": "0xbc4204dc5f630e019562b19965aa15456a995d4a",
        "gas": "0x2ad66",
        "value": "0x0",
        "input": "0xd85d3d2700000000000000000000000000000000000000000000000000000000000000200000000000000000000000000000000000000000000000000000000000000035697066733a2f2f516d5a4b5533747239705679707074346e69683439355434624c63355770776170673156486d4e41754b6f6474650000000000000000000000",
        "nonce": "0x105",
        "chainId": "0xaa36a7"
      },
      "additionalContracts": [],
      "isFixedGasLimit": false
    },
    {
      "hash": "0xd4cbe0644dbba259e160499a998dfcbf116e05518c27c66b78a6cbfb5a5750ce",
      "transactionType": "CALL",
      "contractName": null,
      "contractAddress": "0xbc4204dc5f630e019562b19965aa15456a995d4a",
      "function": "mint(string)",
      "arguments": [
        "ipfs://QmbdSCUhAscHn67pZJ3mWM8ScG2DgGfSAu28bRrx89UNbD"
      ],
      "transaction": {
        "from": "0x1ae1e9de0b091450391c751813d670162acc04b0",
        "to": "0xbc4204dc5f630e019562b19965aa15456a995d4a",
        "gas": "0x2ad66",
        "value": "0x0",
        "input": "0xd85d3d2700000000000000000000000000000000000000000000000000000000000000200000000000000000000000000000000000000000000000000000000000000035697066733a2f2f516d626453435568417363486e3637705a4a336d574d3853634732446747665341753238625272783839554e62440000000000000000000000",
        "nonce": "0x106",
        "chainId": "0xaa36a7"
      },
      "additionalContracts": [],
      "isFixedGasLimit": false
    },
    {
      "hash": "0xc3f930230546e4cfa001fdd3de4adc212a735da3969343b4bf82f123afb5d2a4",
      "transactionType": "CALL",
      "contractName": null,
      "contractAddress": "0xbc4204dc5f630e019562b19965aa15456a995d4a",
      "function": "mint(string)",
      "arguments": [
        "ipfs://QmRouAcTcWd7GFoucQkdRFY6BX5AktVaGiw9Pr6ssGtAs2"
      ],
      "transaction": {
        "from": "0x1ae1e9de0b091450391c751813d670162acc04b0",
        "to": "0xbc4204dc5f630e019562b19965aa15456a995d4a",
        "gas": "0x2ad66",
        "value": "0x0",
        "input": "0xd85d3d2700000000000000000000000000000000000000000000000000000000000000200000000000000000000000000000000000000000000000000000000000000035697066733a2f2f516d526f754163546357643747466f7563516b6452465936425835416b74566147697739507236737347744173320000000000000000000000",
        "nonce": "0x107",
        "chainId": "0xaa36a7"
      },
      "additionalContracts": [],
      "isFixedGasLimit": false
    }
  ],
  "receipts": [
    {
      "status": "0x1",
      "cumulativeGasUsed": "0x16265a6",
      "logs": [
        {
          "address": "0xbc4204dc5f630e019562b19965aa15456a995d4a",
          "topics": [
            "0xddf252ad1be2c89b69c2b068fc378daa952ba7f163c4a11628f55a4df523b3ef",
            "0x0000000000000000000000000000000000000000000000000000000000000000",
            "0x0000000000000000000000001ae1e9de0b091450391c751813d670162acc04b0",
            "0x0000000000000000000000000000000000000000000000000000000000000000"
          ],
          "data": "0x",
          "blockHash": "0x03b95a978fd295d5454c31b5068395fc51fd32f6073376399f28661652b1c8fe",
          "blockNumber": "0x8eb96b",
          "blockTimestamp": "0x68e36adc",
          "transactionHash": "0x47a3fc69a1293100347127d917b109dedd91f51ee887f2ecb0610d0dc7b312a1",
          "transactionIndex": "0xe4",
          "logIndex": "0x14a",
          "removed": false
        },
        {
          "address": "0xbc4204dc5f630e019562b19965aa15456a995d4a",
          "topics": [
            "0xf8e1a15aba9398e019f0b49df1a4fde98ee17ae345cb5f6b5e2c27f5033e8ce7"
          ],
          "data": "0x0000000000000000000000000000000000000000000000000000000000000000",
          "blockHash": "0x03b95a978fd295d5454c31b5068395fc51fd32f6073376399f28661652b1c8fe",
          "blockNumber": "0x8eb96b",
          "blockTimestamp": "0x68e36adc",
          "transactionHash": "0x47a3fc69a1293100347127d917b109dedd91f51ee887f2ecb0610d0dc7b312a1",
          "transactionIndex": "0xe4",
          "logIndex": "0x14b",
          "removed": false
        }
      ],
      "logsBloom": "0x00000000000000000040000000000000000000000000020000000000000000000000000000000000000000000000000000000000000004000000000000000000000000000000000000000008000000000000000000000000000000000000000000000000020000000000000000000800100000000000000000000010000000000000000000000000000000000000000000000000000000000000000000000000000000000000000000000000000000002000000000000000000080000000008000000002002000000000000000000000000000000000000000000000000020000000000000000000200000000000000000000000000000000000000000000000",
      "type": "0x2",
      "transactionHash": "0x47a3fc69a1293100347127d917b109dedd91f51ee887f2ecb0610d0dc7b312a1",
      "transactionIndex": "0xe4",
      "blockHash": "0x03b95a978fd295d5454c31b5068395fc51fd32f6073376399f28661652b1c8fe",
      "blockNumber": "0x8eb96b",
      "gasUsed": "0x275d0",
      "effectiveGasPrice": "0xf4260",
      "from": "0x1ae1e9de0b091450391c751813d670162acc04b0",
      "to": "0xbc4204dc5f630e019562b19965aa15456a995d4a",
      "contractAddress": null
    },
    {
      "status": "0x1",
      "cumulativeGasUsed": "0x16455de",
      "logs": [
        {
          "address": "0xbc4204dc5f630e019562b19965aa15456a995d4a",
          "topics": [
            "0xddf252ad1be2c89b69c2b068fc378daa952ba7f163c4a11628f55a4df523b3ef",
            "0x0000000000000000000000000000000000000000000000000000000000000000",
            "0x0000000000000000000000001ae1e9de0b091450391c751813d670162acc04b0",
            "0x0000000000000000000000000000000000000000000000000000000000000001"
          ],
          "data": "0x",
          "blockHash": "0x03b95a978fd295d5454c31b5068395fc51fd32f6073376399f28661652b1c8fe",
          "blockNumber": "0x8eb96b",
          "blockTimestamp": "0x68e36adc",
          "transactionHash": "0xcacac0639c1c4ecc8f0102293a0f830d32e0915fa69167a6fdb44dd560c3895d",
          "transactionIndex": "0xe5",
          "logIndex": "0x14c",
          "removed": false
        },
        {
          "address": "0xbc4204dc5f630e019562b19965aa15456a995d4a",
          "topics": [
            "0xf8e1a15aba9398e019f0b49df1a4fde98ee17ae345cb5f6b5e2c27f5033e8ce7"
          ],
          "data": "0x0000000000000000000000000000000000000000000000000000000000000001",
          "blockHash": "0x03b95a978fd295d5454c31b5068395fc51fd32f6073376399f28661652b1c8fe",
          "blockNumber": "0x8eb96b",
          "blockTimestamp": "0x68e36adc",
          "transactionHash": "0xcacac0639c1c4ecc8f0102293a0f830d32e0915fa69167a6fdb44dd560c3895d",
          "transactionIndex": "0xe5",
          "logIndex": "0x14d",
          "removed": false
        }
      ],
      "logsBloom": "0x00000000000000000040000000000000000000000000020000000000000000000000000000000000000000000000000000000000000004000000000000040000000000000000000000000008000000000000000000040000000000000000000000000000020000000000000000000800100000000000000000000010000000000000000000000000000000000000000000000000000000000000000000000000000000000000000000000000000000002000000000000000000080000000008000000002002000000000000000000000000000000000000000000000000060000000000000000000200000000000000000000000000000000000000000000000",
      "type": "0x2",
      "transactionHash": "0xcacac0639c1c4ecc8f0102293a0f830d32e0915fa69167a6fdb44dd560c3895d",
      "transactionIndex": "0xe5",
      "blockHash": "0x03b95a978fd295d5454c31b5068395fc51fd32f6073376399f28661652b1c8fe",
      "blockNumber": "0x8eb96b",
      "gasUsed": "0x1f038",
      "effectiveGasPrice": "0xf4260",
      "from": "0x1ae1e9de0b091450391c751813d670162acc04b0",
      "to": "0xbc4204dc5f630e019562b19965aa15456a995d4a",
      "contractAddress": null
    },
    {
      "status": "0x1",
      "cumulativeGasUsed": "0x1664616",
      "logs": [
        {
          "address": "0xbc4204dc5f630e019562b19965aa15456a995d4a",
          "topics": [
            "0xddf252ad1be2c89b69c2b068fc378daa952ba7f163c4a11628f55a4df523b3ef",
            "0x0000000000000000000000000000000000000000000000000000000000000000",
            "0x0000000000000000000000001ae1e9de0b091450391c751813d670162acc04b0",
            "0x0000000000000000000000000000000000000000000000000000000000000002"
          ],
          "data": "0x",
          "blockHash": "0x03b95a978fd295d5454c31b5068395fc51fd32f6073376399f28661652b1c8fe",
          "blockNumber": "0x8eb96b",
          "blockTimestamp": "0x68e36adc",
          "transactionHash": "0x672741a028be5f204a12d3b60d0fbeabd4485486a74abe6bbf8e22550a611412",
          "transactionIndex": "0xe6",
          "logIndex": "0x14e",
          "removed": false
        },
        {
          "address": "0xbc4204dc5f630e019562b19965aa15456a995d4a",
          "topics": [
            "0xf8e1a15aba9398e019f0b49df1a4fde98ee17ae345cb5f6b5e2c27f5033e8ce7"
          ],
          "data": "0x0000000000000000000000000000000000000000000000000000000000000002",
          "blockHash": "0x03b95a978fd295d5454c31b5068395fc51fd32f6073376399f28661652b1c8fe",
          "blockNumber": "0x8eb96b",
          "blockTimestamp": "0x68e36adc",
          "transactionHash": "0x672741a028be5f204a12d3b60d0fbeabd4485486a74abe6bbf8e22550a611412",
          "transactionIndex": "0xe6",
          "logIndex": "0x14f",
          "removed": false
        }
      ],
      "logsBloom": "0x04000000000000000040000000000000000000000000020000000000000000000000000000000000000000000000000000000000000004000000000000000000000000000000000000000008000000000000000000000000000000000000000000000000020000000000000000000800100000000000000000000010000000000000000000000000000000000000000000000000000000000000000000000000000000000000000000000100000000002000000000000000000080000000008000000002002000000000000000000000000000000000000000000000000020000000000000000000200000000000000000000000008000000000000000000000",
      "type": "0x2",
      "transactionHash": "0x672741a028be5f204a12d3b60d0fbeabd4485486a74abe6bbf8e22550a611412",
      "transactionIndex": "0xe6",
      "blockHash": "0x03b95a978fd295d5454c31b5068395fc51fd32f6073376399f28661652b1c8fe",
      "blockNumber": "0x8eb96b",
      "gasUsed": "0x1f038",
      "effectiveGasPrice": "0xf4260",
      "from": "0x1ae1e9de0b091450391c751813d670162acc04b0",
      "to": "0xbc4204dc5f630e019562b19965aa15456a995d4a",
      "contractAddress": null
    },
    {
      "status": "0x1",
      "cumulativeGasUsed": "0x168364e",
      "logs": [
        {
          "address": "0xbc4204dc5f630e019562b19965aa15456a995d4a",
          "topics": [
            "0xddf252ad1be2c89b69c2b068fc378daa952ba7f163c4a11628f55a4df523b3ef",
            "0x0000000000000000000000000000000000000000000000000000000000000000",
            "0x0000000000000000000000001ae1e9de0b091450391c751813d670162acc04b0",
            "0x0000000000000000000000000000000000000000000000000000000000000003"
          ],
          "data": "0x",
          "blockHash": "0x03b95a978fd295d5454c31b5068395fc51fd32f6073376399f28661652b1c8fe",
          "blockNumber": "0x8eb96b",
          "blockTimestamp": "0x68e36adc",
          "transactionHash": "0xa48230ac847a222b25b80c371dc07d0e040998bd33a26559dbcf1883ba1d22ef",
          "transactionIndex": "0xe7",
          "logIndex": "0x150",
          "removed": false
        },
        {
          "address": "0xbc4204dc5f630e019562b19965aa15456a995d4a",
          "topics": [
            "0xf8e1a15aba9398e019f0b49df1a4fde98ee17ae345cb5f6b5e2c27f5033e8ce7"
          ],
          "data": "0x0000000000000000000000000000000000000000000000000000000000000003",
          "blockHash": "0x03b95a978fd295d5454c31b5068395fc51fd32f6073376399f28661652b1c8fe",
          "blockNumber": "0x8eb96b",
          "blockTimestamp": "0x68e36adc",
          "transactionHash": "0xa48230ac847a222b25b80c371dc07d0e040998bd33a26559dbcf1883ba1d22ef",
          "transactionIndex": "0xe7",
          "logIndex": "0x151",
          "removed": false
        }
      ],
      "logsBloom": "0x00000000000000000040000000000000000000000000020000000000000000000000000000000000000000000000000000000000020004000000000000000000000000000000000000000008000000000000000000000000000000000000000000000000020000000000000000000800100000000000000000000010000000000000000000000000000000000000000000000000000000000000000000000000000000000000000000000000000000002000000000800000000080000000408000000002002000000000000000000000000000000000000000000000000020000000000000000000200000000000000000000000000000000000000000000000",
      "type": "0x2",
      "transactionHash": "0xa48230ac847a222b25b80c371dc07d0e040998bd33a26559dbcf1883ba1d22ef",
      "transactionIndex": "0xe7",
      "blockHash": "0x03b95a978fd295d5454c31b5068395fc51fd32f6073376399f28661652b1c8fe",
      "blockNumber": "0x8eb96b",
      "gasUsed": "0x1f038",
      "effectiveGasPrice": "0xf4260",
      "from": "0x1ae1e9de0b091450391c751813d670162acc04b0",
      "to": "0xbc4204dc5f630e019562b19965aa15456a995d4a",
      "contractAddress": null
    },
    {
      "status": "0x1",
      "cumulativeGasUsed": "0x16a2686",
      "logs": [
        {
          "address": "0xbc4204dc5f630e019562b19965aa15456a995d4a",
          "topics": [
            "0xddf252ad1be2c89b69c2b068fc378daa952ba7f163c4a11628f55a4df523b3ef",
            "0x0000000000000000000000000000000000000000000000000000000000000000",
            "0x0000000000000000000000001ae1e9de0b091450391c751813d670162acc04b0",
            "0x0000000000000000000000000000000000000000000000000000000000000004"
          ],
          "data": "0x",
          "blockHash": "0x03b95a978fd295d5454c31b5068395fc51fd32f6073376399f28661652b1c8fe",
          "blockNumber": "0x8eb96b",
          "blockTimestamp": "0x68e36adc",
          "transactionHash": "0xe3b73ecf540f6a2df90a7b35381f4a07a9d91ebe28f5bfc7a0ee0e0efd014b44",
          "transactionIndex": "0xe8",
          "logIndex": "0x152",
          "removed": false
        },
        {
          "address": "0xbc4204dc5f630e019562b19965aa15456a995d4a",
          "topics": [
            "0xf8e1a15aba9398e019f0b49df1a4fde98ee17ae345cb5f6b5e2c27f5033e8ce7"
          ],
          "data": "0x0000000000000000000000000000000000000000000000000000000000000004",
          "blockHash": "0x03b95a978fd295d5454c31b5068395fc51fd32f6073376399f28661652b1c8fe",
          "blockNumber": "0x8eb96b",
          "blockTimestamp": "0x68e36adc",
          "transactionHash": "0xe3b73ecf540f6a2df90a7b35381f4a07a9d91ebe28f5bfc7a0ee0e0efd014b44",
          "transactionIndex": "0xe8",
          "logIndex": "0x153",
          "removed": false
        }
      ],
      "logsBloom": "0x00000000000000000040000000000000000000000000020000000000000000000000000000000000000000000000000000000000000004000000000000000000000000000000000000000008000000000000000000000000000000000000000008000000020000000000000000000800100000000000000000000010000000000000000000000000000000000000000000000000000000000000000000000000000000000000000000000000000000002000000000000000002080000000008000000002002000000000000000000000000000008000000000000000000020000000000000000000200000000000000000000000000000000000000000000000",
      "type": "0x2",
      "transactionHash": "0xe3b73ecf540f6a2df90a7b35381f4a07a9d91ebe28f5bfc7a0ee0e0efd014b44",
      "transactionIndex": "0xe8",
      "blockHash": "0x03b95a978fd295d5454c31b5068395fc51fd32f6073376399f28661652b1c8fe",
      "blockNumber": "0x8eb96b",
      "gasUsed": "0x1f038",
      "effectiveGasPrice": "0xf4260",
      "from": "0x1ae1e9de0b091450391c751813d670162acc04b0",
      "to": "0xbc4204dc5f630e019562b19965aa15456a995d4a",
      "contractAddress": null
    },
    {
      "status": "0x1",
      "cumulativeGasUsed": "0x16c16be",
      "logs": [
        {
          "address": "0xbc4204dc5f630e019562b19965aa15456a995d4a",
          "topics": [
            "0xddf252ad1be2c89b69c2b068fc378daa952ba7f163c4a11628f55a4df523b3ef",
            "0x0000000000000000000000000000000000000000000000000000000000000000",
            "0x0000000000000000000000001ae1e9de0b091450391c751813d670162acc04b0",
            "0x0000000000000000000000000000000000000000000000000000000000000005"
          ],
          "data": "0x",
          "blockHash": "0x03b95a978fd295d5454c31b5068395fc51fd32f6073376399f28661652b1c8fe",
          "blockNumber": "0x8eb96b",
          "blockTimestamp": "0x68e36adc",
          "transactionHash": "0xfe547515e4e5a0032dc692cdf450d9411574fc384e7362d749a3c0607ce47379",
          "transactionIndex": "0xe9",
          "logIndex": "0x154",
          "removed": false
        },
        {
          "address": "0xbc4204dc5f630e019562b19965aa15456a995d4a",
          "topics": [
            "0xf8e1a15aba9398e019f0b49df1a4fde98ee17ae345cb5f6b5e2c27f5033e8ce7"
          ],
          "data": "0x0000000000000000000000000000000000000000000000000000000000000005",
          "blockHash": "0x03b95a978fd295d5454c31b5068395fc51fd32f6073376399f28661652b1c8fe",
          "blockNumber": "0x8eb96b",
          "blockTimestamp": "0x68e36adc",
          "transactionHash": "0xfe547515e4e5a0032dc692cdf450d9411574fc384e7362d749a3c0607ce47379",
          "transactionIndex": "0xe9",
          "logIndex": "0x155",
          "removed": false
        }
      ],
      "logsBloom": "0x00000000000000000040000000000000000000000000020000000000000000000000000000000000000000000000000000000000000004000000000000000000000010000000000000000008000000000000000000000000000000000000000000000000020000000000000000000800100000000000000000000010000000000000000000000000000000000000001000000800000000000000000000000000000000000000000000000000000000002000000000000000000080000000008000000002002000000000000000000000000000000000000000000000000020000000000000000000200000000000000000000000000000000000000000000000",
      "type": "0x2",
      "transactionHash": "0xfe547515e4e5a0032dc692cdf450d9411574fc384e7362d749a3c0607ce47379",
      "transactionIndex": "0xe9",
      "blockHash": "0x03b95a978fd295d5454c31b5068395fc51fd32f6073376399f28661652b1c8fe",
      "blockNumber": "0x8eb96b",
      "gasUsed": "0x1f038",
      "effectiveGasPrice": "0xf4260",
      "from": "0x1ae1e9de0b091450391c751813d670162acc04b0",
      "to": "0xbc4204dc5f630e019562b19965aa15456a995d4a",
      "contractAddress": null
    },
    {
      "status": "0x1",
      "cumulativeGasUsed": "0x16e06f6",
      "logs": [
        {
          "address": "0xbc4204dc5f630e019562b19965aa15456a995d4a",
          "topics": [
            "0xddf252ad1be2c89b69c2b068fc378daa952ba7f163c4a11628f55a4df523b3ef",
            "0x0000000000000000000000000000000000000000000000000000000000000000",
            "0x0000000000000000000000001ae1e9de0b091450391c751813d670162acc04b0",
            "0x0000000000000000000000000000000000000000000000000000000000000006"
          ],
          "data": "0x",
          "blockHash": "0x03b95a978fd295d5454c31b5068395fc51fd32f6073376399f28661652b1c8fe",
          "blockNumber": "0x8eb96b",
          "blockTimestamp": "0x68e36adc",
          "transactionHash": "0x304cc4807574d3b5a3c095fd32404e7f6b1aedc0fe4f253bea239c2a8df7d41d",
          "transactionIndex": "0xea",
          "logIndex": "0x156",
          "removed": false
        },
        {
          "address": "0xbc4204dc5f630e019562b19965aa15456a995d4a",
          "topics": [
            "0xf8e1a15aba9398e019f0b49df1a4fde98ee17ae345cb5f6b5e2c27f5033e8ce7"
          ],
          "data": "0x0000000000000000000000000000000000000000000000000000000000000006",
          "blockHash": "0x03b95a978fd295d5454c31b5068395fc51fd32f6073376399f28661652b1c8fe",
          "blockNumber": "0x8eb96b",
          "blockTimestamp": "0x68e36adc",
          "transactionHash": "0x304cc4807574d3b5a3c095fd32404e7f6b1aedc0fe4f253bea239c2a8df7d41d",
          "transactionIndex": "0xea",
          "logIndex": "0x157",
          "removed": false
        }
      ],
      "logsBloom": "0x00000000000000000040000000000000000000000000020000000000000000000000000000000000000000000000000000000000000404000000000000000000000000000000000000000008000000000000000000000000000000000000000000000000020000000000000000000800100000000000000000000010000000000000000400000000000000000000000000000000000000000000000000000000000000000000000000000000000000002000000000000000000080080000008000000002002000000000000000000000000000000000000000000000000020000000000000000000200000000000000000000000000000000000000000000000",
      "type": "0x2",
      "transactionHash": "0x304cc4807574d3b5a3c095fd32404e7f6b1aedc0fe4f253bea239c2a8df7d41d",
      "transactionIndex": "0xea",
      "blockHash": "0x03b95a978fd295d5454c31b5068395fc51fd32f6073376399f28661652b1c8fe",
      "blockNumber": "0x8eb96b",
      "gasUsed": "0x1f038",
      "effectiveGasPrice": "0xf4260",
      "from": "0x1ae1e9de0b091450391c751813d670162acc04b0",
      "to": "0xbc4204dc5f630e019562b19965aa15456a995d4a",
      "contractAddress": null
    },
    {
      "status": "0x1",
      "cumulativeGasUsed": "0x16ff72e",
      "logs": [
        {
          "address": "0xbc4204dc5f630e019562b19965aa15456a995d4a",
          "topics": [
            "0xddf252ad1be2c89b69c2b068fc378daa952ba7f163c4a11628f55a4df523b3ef",
            "0x0000000000000000000000000000000000000000000000000000000000000000",
            "0x0000000000000000000000001ae1e9de0b091450391c751813d670162acc04b0",
            "0x0000000000000000000000000000000000000000000000000000000000000007"
          ],
          "data": "0x",
          "blockHash": "0x03b95a978fd295d5454c31b5068395fc51fd32f6073376399f28661652b1c8fe",
          "blockNumber": "0x8eb96b",
          "blockTimestamp": "0x68e36adc",
          "transactionHash": "0x9b718c3f2e05763823161f6513ca5988c9df4692e581c4147b93005cfd40660a",
          "transactionIndex": "0xeb",
          "logIndex": "0x158",
          "removed": false
        },
        {
          "address": "0xbc4204dc5f630e019562b19965aa15456a995d4a",
          "topics": [
            "0xf8e1a15aba9398e019f0b49df1a4fde98ee17ae345cb5f6b5e2c27f5033e8ce7"
          ],
          "data": "0x0000000000000000000000000000000000000000000000000000000000000007",
          "blockHash": "0x03b95a978fd295d5454c31b5068395fc51fd32f6073376399f28661652b1c8fe",
          "blockNumber": "0x8eb96b",
          "blockTimestamp": "0x68e36adc",
          "transactionHash": "0x9b718c3f2e05763823161f6513ca5988c9df4692e581c4147b93005cfd40660a",
          "transactionIndex": "0xeb",
          "logIndex": "0x159",
          "removed": false
        }
      ],
      "logsBloom": "0x00000000000000000040000000000000000000000000020000000000000000000000000000000000000000000000000000001000000004000000000000000000000020000000000000000008000000000000000000000000000000000000000000000000020000000000000000000800100000000000000000000010000000000000000000000000000000000000000000000000000000000000000000000000000000000000000000000000000000002000000000000000000080000000008000000002002000000000000000000000000000000000000000000100000020000000000000000000200000000000000000000000000000000000000000000000",
      "type": "0x2",
      "transactionHash": "0x9b718c3f2e05763823161f6513ca5988c9df4692e581c4147b93005cfd40660a",
      "transactionIndex": "0xeb",
      "blockHash": "0x03b95a978fd295d5454c31b5068395fc51fd32f6073376399f28661652b1c8fe",
      "blockNumber": "0x8eb96b",
      "gasUsed": "0x1f038",
      "effectiveGasPrice": "0xf4260",
      "from": "0x1ae1e9de0b091450391c751813d670162acc04b0",
      "to": "0xbc4204dc5f630e019562b19965aa15456a995d4a",
      "contractAddress": null
    },
    {
      "status": "0x1",
      "cumulativeGasUsed": "0x171e766",
      "logs": [
        {
          "address": "0xbc4204dc5f630e019562b19965aa15456a995d4a",
          "topics": [
            "0xddf252ad1be2c89b69c2b068fc378daa952ba7f163c4a11628f55a4df523b3ef",
            "0x0000000000000000000000000000000000000000000000000000000000000000",
            "0x0000000000000000000000001ae1e9de0b091450391c751813d670162acc04b0",
            "0x0000000000000000000000000000000000000000000000000000000000000008"
          ],
          "data": "0x",
          "blockHash": "0x03b95a978fd295d5454c31b5068395fc51fd32f6073376399f28661652b1c8fe",
          "blockNumber": "0x8eb96b",
          "blockTimestamp": "0x68e36adc",
          "transactionHash": "0xd4cbe0644dbba259e160499a998dfcbf116e05518c27c66b78a6cbfb5a5750ce",
          "transactionIndex": "0xec",
          "logIndex": "0x15a",
          "removed": false
        },
        {
          "address": "0xbc4204dc5f630e019562b19965aa15456a995d4a",
          "topics": [
            "0xf8e1a15aba9398e019f0b49df1a4fde98ee17ae345cb5f6b5e2c27f5033e8ce7"
          ],
          "data": "0x0000000000000000000000000000000000000000000000000000000000000008",
          "blockHash": "0x03b95a978fd295d5454c31b5068395fc51fd32f6073376399f28661652b1c8fe",
          "blockNumber": "0x8eb96b",
          "blockTimestamp": "0x68e36adc",
          "transactionHash": "0xd4cbe0644dbba259e160499a998dfcbf116e05518c27c66b78a6cbfb5a5750ce",
          "transactionIndex": "0xec",
          "logIndex": "0x15b",
          "removed": false
        }
      ],
      "logsBloom": "0x00000000000000000040000000000000000000000000020000000000000000000000000000000000000000000000000000000000000084000000000000000000000000000000000000000008000000000000000000000000000000000000000000000000020000000000000000000800100000000000000000000010000000000080000000000000000000000000000000000000000000000000000000000000000000000000000000000000000000002000000000000000000080000000008040000002002000000000000000000000000000000000000000000000000020000000000000000000200000000000000000000000000000000000000000000000",
      "type": "0x2",
      "transactionHash": "0xd4cbe0644dbba259e160499a998dfcbf116e05518c27c66b78a6cbfb5a5750ce",
      "transactionIndex": "0xec",
      "blockHash": "0x03b95a978fd295d5454c31b5068395fc51fd32f6073376399f28661652b1c8fe",
      "blockNumber": "0x8eb96b",
      "gasUsed": "0x1f038",
      "effectiveGasPrice": "0xf4260",
      "from": "0x1ae1e9de0b091450391c751813d670162acc04b0",
      "to": "0xbc4204dc5f630e019562b19965aa15456a995d4a",
      "contractAddress": null
    },
    {
      "status": "0x1",
      "cumulativeGasUsed": "0x173d79e",
      "logs": [
        {
          "address": "0xbc4204dc5f630e019562b19965aa15456a995d4a",
          "topics": [
            "0xddf252ad1be2c89b69c2b068fc378daa952ba7f163c4a11628f55a4df523b3ef",
            "0x0000000000000000000000000000000000000000000000000000000000000000",
            "0x0000000000000000000000001ae1e9de0b091450391c751813d670162acc04b0",
            "0x0000000000000000000000000000000000000000000000000000000000000009"
          ],
          "data": "0x",
          "blockHash": "0x03b95a978fd295d5454c31b5068395fc51fd32f6073376399f28661652b1c8fe",
          "blockNumber": "0x8eb96b",
          "blockTimestamp": "0x68e36adc",
          "transactionHash": "0xc3f930230546e4cfa001fdd3de4adc212a735da3969343b4bf82f123afb5d2a4",
          "transactionIndex": "0xed",
          "logIndex": "0x15c",
          "removed": false
        },
        {
          "address": "0xbc4204dc5f630e019562b19965aa15456a995d4a",
          "topics": [
            "0xf8e1a15aba9398e019f0b49df1a4fde98ee17ae345cb5f6b5e2c27f5033e8ce7"
          ],
          "data": "0x0000000000000000000000000000000000000000000000000000000000000009",
          "blockHash": "0x03b95a978fd295d5454c31b5068395fc51fd32f6073376399f28661652b1c8fe",
          "blockNumber": "0x8eb96b",
          "blockTimestamp": "0x68e36adc",
          "transactionHash": "0xc3f930230546e4cfa001fdd3de4adc212a735da3969343b4bf82f123afb5d2a4",
          "transactionIndex": "0xed",
          "logIndex": "0x15d",
          "removed": false
        }
      ],
      "logsBloom": "0x00000000000000000040000000000000000000000000020000000000000000000000000000000000000000000000000000000000000004000000000000200000000000000000000000000008000000000000000000000000000000000000000000000000020000000000000000000800100000000000000000000010000000000000000000000000000000000000000000001000000000000000000000000000000000000000000000000000000000002000000000000000000080000000008000000002002000000000000000000000000000000000000000000000000020000000000000000000200000000000000000000000000000000000000000800000",
      "type": "0x2",
      "transactionHash": "0xc3f930230546e4cfa001fdd3de4adc212a735da3969343b4bf82f123afb5d2a4",
      "transactionIndex": "0xed",
      "blockHash": "0x03b95a978fd295d5454c31b5068395fc51fd32f6073376399f28661652b1c8fe",
      "blockNumber": "0x8eb96b",
      "gasUsed": "0x1f038",
      "effectiveGasPrice": "0xf4260",
      "from": "0x1ae1e9de0b091450391c751813d670162acc04b0",
      "to": "0xbc4204dc5f630e019562b19965aa15456a995d4a",
      "contractAddress": null
    }
  ],
  "libraries": [],
  "pending": [],
  "returns": {},
  "timestamp": 1759734493942,
  "chain": 11155111,
  "commit": null
}