{
  "transactions": [
    {
      "hash": "0x0007cd94f2eba9dbaf296335142363a990715250c3f93c36b46515422d9178dc",
      "transactionType": "CALL",
      "contractName": null,
      "contractAddress": "0x4f9a9b4f96dd04b0286b6bd58c3b526a03cd6d0a",
      "function": "mint(string)",
      "arguments": [
        "ipfs://Qmf6P7DBfszYetiz1popxkiYJw46njsRJmJpcTN2ENH8wX"
      ],
      "transaction": {
        "from": "0x1ae1e9de0b091450391c751813d670162acc04b0",
        "to": "0x4f9a9b4f96dd04b0286b6bd58c3b526a03cd6d0a",
        "gas": "0x2ad66",
        "value": "0x0",
        "input": "0xd85d3d2700000000000000000000000000000000000000000000000000000000000000200000000000000000000000000000000000000000000000000000000000000035697066733a2f2f516d66365037444266737a596574697a31706f70786b69594a7734366e6a73524a6d4a7063544e32454e483877580000000000000000000000",
        "nonce": "0xfc",
        "chainId": "0xaa36a7"
      },
      "additionalContracts": [],
      "isFixedGasLimit": false
    }
  ],
  "receipts": [
    {
      "status": "0x1",
      "cumulativeGasUsed": "0x159450d",
      "logs": [
        {
          "address": "0x4f9a9b4f96dd04b0286b6bd58c3b526a03cd6d0a",
          "topics": [
            "0xddf252ad1be2c89b69c2b068fc378daa952ba7f163c4a11628f55a4df523b3ef",
            "0x0000000000000000000000000000000000000000000000000000000000000000",
            "0x0000000000000000000000001ae1e9de0b091450391c751813d670162acc04b0",
            "0x0000000000000000000000000000000000000000000000000000000000000005"
          ],
          "data": "0x",
          "blockHash": "0x5f6e67c92b83a5b06f8252adb36cab99bb2bfd755e8a9d4dd964e479a3b99da1",
          "blockNumber": "0x8eb91d",
          "blockTimestamp": "0x68e366c8",
          "transactionHash": "0x0007cd94f2eba9dbaf296335142363a990715250c3f93c36b46515422d9178dc",
          "transactionIndex": "0xba",
          "logIndex": "0x118",
          "removed": false
        },
        {
          "address": "0x4f9a9b4f96dd04b0286b6bd58c3b526a03cd6d0a",
          "topics": [
            "0xf8e1a15aba9398e019f0b49df1a4fde98ee17ae345cb5f6b5e2c27f5033e8ce7"
          ],
          "data": "0x0000000000000000000000000000000000000000000000000000000000000005",
          "blockHash": "0x5f6e67c92b83a5b06f8252adb36cab99bb2bfd755e8a9d4dd964e479a3b99da1",
          "blockNumber": "0x8eb91d",
          "blockTimestamp": "0x68e366c8",
          "transactionHash": "0x0007cd94f2eba9dbaf296335142363a990715250c3f93c36b46515422d9178dc",
          "transactionIndex": "0xba",
          "logIndex": "0x119",
          "removed": false
        }
      ],
      "logsBloom": "0x00000000000000000000000000000000000000000000020000000000000000000000000000000000000000000000000000000000000004000000000000000000000010000000000000000008020000000000000000000000000000000000000000000000020000000000000000000800000000000000000000000030000000000000000000000000000000000000001000000800000000000000000000000000000000000000000000000000000000002000000000000000000080000000008000000002000000000000000000000000000000000000000000000000000020000000000000000200200000000000000000000000000000000000000000000000",
      "type": "0x2",
      "transactionHash": "0x0007cd94f2eba9dbaf296335142363a990715250c3f93c36b46515422d9178dc",
      "transactionIndex": "0xba",
      "blockHash": "0x5f6e67c92b83a5b06f8252adb36cab99bb2bfd755e8a9d4dd964e479a3b99da1",
      "blockNumber": "0x8eb91d",
      "gasUsed": "0x1f038",
      "effectiveGasPrice": "0xf4256",
      "from": "0x1ae1e9de0b091450391c751813d670162acc04b0",
      "to": "0x4f9a9b4f96dd04b0286b6bd58c3b526a03cd6d0a",
      "contractAddress": null
    }
  ],
  "libraries": [],
  "pending": [],
  "returns": {},
  "timestamp": 1759733450187,
  "chain": 11155111,
  "commit": null
}